:100000000C9434000C9451000C9451000C94510049
:100010000C947D000C9451000C9451000C945100F0
:100020000C9451000C9451000C9451000C9453000A
:100030000C9451000C9451000C9451000C945100FC
:100040000C9451000C9451000C9451000C945100EC
:100050000C9451000C9451000C9451000C945100DC
:100060000C9451000C94510011241FBECFEFD8E026
:10007000DEBFCDBF11E0A0E0B1E0EAE3F5E102C0F0
:1000800005900D92A030B107D9F722E0A0E0B1E0D1
:1000900001C01D92A634B207E1F70E943D010C9405
:1000A0009B0A0C942A011F920F9200905F000F92FE
:1000B00011242F938F939F93EF93FF93CF93DF930D
:1000C000CDB7DEB781E890E0FC01108287E290E0D6
:1000D0002FEFFC01208388E290E0FC0110820000F9
:1000E000DF91CF91FF91EF919F918F912F910F9081
:1000F00000925F000F901F9018951F920F92009032
:100100005F000F9211242F933F934F935F938F9330
:100110009F93EF93FF93CF93DF93CDB7DEB781E843
:1001200090E0FC01108286E290E0FC0180818F71FA
:100130008093DD0188E290E028E230E0F90120813F
:100140002F7DFC0120839091DD018091450289275C
:100150008093DD014091DD0187E290E027E230E00D
:10016000F9012081242BFC0120838091DD01882F5F
:1001700090E0AC014095509588E290E028E230E0B4
:10018000F9012081322F242F2323FC012083909119
:10019000DD018091450289278093450284E890E043
:1001A000FC018081918190936C0180936B0184E0CC
:1001B0008093420280E18093440225C090914402E2
:1001C0008091DD0189238823A1F080914202882F4C
:1001D00090E020916B0130916C01880F991F835939
:1001E0009E4FFC0131832083809100018F5F8093BB
:1001F00000018091440286958093440280914202DE
:10020000815080934202809144028823B9F6809104
:100210000001853071F081E890E022E0FC0120834C
:1002200088E290E028E230E0F90120812062FC01C0
:1002300020830000DF91CF91FF91EF919F918F91EB
:100240005F914F913F912F910F9000925F000F901F
:100250001F9018951F920F9200905F000F9211242B
:10026000CF93DF93CDB7DEB70000DF91CF910F9032
:1002700000925F000F901F901895CF93DF93CDB73A
:10028000DEB7A4970FB6F894DEBF0FBECDBF80E0F7
:1002900090E00E947B0A8C8B0E94E9050E94730506
:1002A0008C89823009F0BFC182E090E00E947B0A15
:1002B0008093030181E090E00E947B0A8093060115
:1002C0001A82198211C089819A8107960E947B0A3D
:1002D000282F89819A81895F9E4FFC012083898123
:1002E0009A8101969A83898380910601282F30E0B4
:1002F00089819A818217930734F31C821B821E82A4
:100300001D8212C08D819E818C599F4F0E947B0A55
:10031000282F8D819E8187589E4FFC0120838D81DF
:100320009E8101969E838D838D819E818436910569
:100330004CF344E650E064E670E089E791E00E9407
:100340006B0A62C10E94DA0780917801882F90E0E1
:1003500081719927892B09F434C1809178018171C9
:100360008D8B80E80E94970502C00E94DA07809179
:100370007801882F90E081719927892BB1F78091BE
:100380007801882F90E084709927892B41F48D891A
:10039000882F90E081719927419709F0EEC08B81F9
:1003A0009C81895F9E4FFC0180818E8B8E89882382
:1003B00009F064C080E30E94BD051F82809178012E
:1003C0008887198615C00E94DA072091780181E09C
:1003D0009885291709F080E0882F90E0982F8F8169
:1003E000890F8F8380917801888789858F5F8987BE
:1003F00089858A3040F320C01F82809178018887E8
:100400000E94DA071A8615C00E94DA072091780147
:1004100081E09885291709F080E0882F90E0982FD7
:100420008F81890F8F838091780188878A858F5F7C
:100430008A878A858A3040F380917801882F90E0FE
:1004400084709927892B19F08F818630A8F202C019
:100450000E94DA0780917801882F90E082709927B6
:10046000892BB1F302C00E94DA0780917801882FAE
:1004700090E084709927892BB1F379C08E898230FE
:1004800079F485E10E94970502C00E94DA07809105
:100490007801882F90E081719927892BB1F767C087
:1004A0008E89833009F063C080E30E94AA051B8611
:1004B000809178018C871D8615C00E94DA072091F3
:1004C000780181E09C85291709F080E0882F90E071
:1004D000982F8B85890F8B87809178018C878D85EC
:1004E0008F5F8D878D858A3040F320C01B86809179
:1004F00078018C870E94DA071E8615C00E94DA07F1
:100500002091780181E09C85291709F080E0882FEF
:1005100090E0982F8B85890F8B87809178018C874D
:100520008E858F5F8E878E858A3040F3809178012B
:10053000882F90E084709927892B19F08B8586305D
:10054000A8F202C00E94DA0780917801882F90E01B
:1005500088709927892BB1F302C00E94DA07809135
:100560007801882F90E084709927892BB1F38B81D3
:100570009C8101969C838B8323C08D89813079F483
:1005800080E80E94BD0502C00E94DA0780917801D0
:10059000882F90E084709927892BB1F311C08D8941
:1005A000803171F480E80E94AA0502C00E94DA0737
:1005B00080917801882F90E084709927892BB1F37E
:1005C00023C080917801882F90E084709927892B2F
:1005D00021F080E30E94970517C080917801882F51
:1005E00090E088709927892B21F080E30E94AA056A
:1005F0000BC080917801882F90E082709927892B19
:1006000019F080E30E94BD0580910601282F30E09B
:100610008B819C81821793070CF494CE0E948805ED
:100620000E94D0050BC280910401823009F049C0BC
:1006300062E080E090E00E948D0A80910301882FA3
:1006400090E0AC0164E670E087E091E00E94830AEC
:1006500080910301682F82E090E00E948D0A8091D2
:100660000601482F6EED71E087E091E00E942008BE
:100670008093060180910601682F81E090E00E943E
:100680008D0A188A1F8611C08F85988982529E4FC5
:10069000FC0120818F8598890796622F0E948D0A20
:1006A0008F8598890196988B8F8780910601282FD6
:1006B00030E08F8598898217930734F381E0809327
:1006C000040180910401882309F0B3C10E94DA0774
:1006D00080917801882F90E081709927892B09F407
:1006E00067C0809178018471898B80E80E949705AA
:1006F0001B8A1A8A07C00E94DA078A899B89019699
:100700009B8B8A8B80917801882F90E0817099274C
:10071000892B21F08A899B89C2976CF38989882368
:1007200021F4809178018470898B80E80E94BD0556
:100730001B8A1A8A07C08A899B8901969B8B8A8BA0
:100740000E94DA0780917801882F90E084709927C1
:10075000892B29F08A899B89883C910564F31B8A3F
:100760001A8A07C00E94DA078A899B8901969B8BA7
:100770008A8B80917801882F90E084709927892B4B
:1007800029F48A899B89883C910564F389898823A7
:1007900071F080910301882F90E0895F9E4FFC01EA
:1007A0001082809103018F5F809303012FC12EC1BE
:1007B00080917801882F90E084709927892B21F00F
:1007C00085E10E94970522C180917801882F90E0F1
:1007D00080719927892B09F44AC080E80E94970507
:1007E00004C00E94DA070E94FA0780917801882FDE
:1007F00090E080719927892BA1F780917801882F4B
:1008000090E08F709927892B89F085E10E949705E8
:100810008091030191E0980F90930301882F90E05D
:10082000895F9E4F22E0FC0120831BC080917801EC
:100830008823B9F480E80E94AA050BC00E94DA0759
:1008400080917801882F90E087709927892B09F093
:1008500008C080917801882F90E084709927892BB7
:1008600069F385E10E9497050E94DA07CFC0809165
:100870007801882309F0CAC080917701843009F09B
:1008800092C080910301882F90E00197895F9E4F6D
:10089000FC018081813009F482C085E10E949705C6
:1008A00080E090E0AAE7B3E48F8B988FA98FBA8F8E
:1008B00020E030E04AE753E46F89788D898D9A8D86
:1008C0000E94FE09DC01CB018B8F9C8FAD8FBE8F08
:1008D00020E030E040E85FE36B8D7C8D8D8D9E8D58
:1008E0000E94DE0888232CF481E090E098A38F8F8B
:1008F0003FC020E03FEF4FE757E46B8D7C8D8D8D3F
:100900009E8D0E94F90918164CF520E030E040E277
:1009100051E46F89788D898D9A8D0E94FE09DC01E2
:10092000CB01BC01CD010E945509DC01CB0198A38C
:100930008F8F0FC089E190E09AA389A389A19AA122
:100940000197F1F79AA389A38F8D98A1019798A396
:100950008F8F8F8D98A1892B69F714C06B8D7C8D3B
:100960008D8D9E8D0E945509DC01CB0198A38F8F40
:100970008F8D98A19CA38BA38BA19CA10197F1F7CC
:100980009CA38BA38091030191E0980F90930301A6
:10099000882F90E0895F9E4F21E0FC01208380E357
:1009A0000E94BD052DC080917701882F90E0837053
:1009B0009927892B79F085E10E94BD0502C00E942C
:1009C000DA0780917801882F90E084709927892B2D
:1009D000B1F316C080917701882F90E08871992734
:1009E000892B71F085E10E94AA0502C00E94DA07F6
:1009F00080917801882F90E084709927892BB1F33A
:100A000081E090E090930201809301018091780150
:100A1000882321F0109202011092010180910101BE
:100A200090910201892B49F480917801809377019C
:100A3000FACD0E9488050E94D005F5CD80E090E0B7
:100A4000A4960FB6F894DEBF0FBECDBFDF91CF9155
:100A500008950F93CF93DF9300D000D01F92CDB7AE
:100A6000DEB789836A834B832C830D838C81882333
:100A700029F083EB90E0FC01108205C083EB90E04D
:100A80002D81FC0120838981882329F087E490E06F
:100A9000FC01108205C087E490E02D81FC012083D9
:100AA0008A81882329F088E490E0FC01108205C047
:100AB00088E490E02D81FC0120838B81882329F03C
:100AC00084EB90E0FC01108205C084EB90E02D8166
:100AD000FC0120830F900F900F900F900F90DF91EB
:100AE000CF910F910895CF93DF931F92CDB7DEB7CB
:100AF00083EF898384E490E02981FC01208380EBEB
:100B000090E02981FC0120830F90DF91CF9108951F
:100B1000CF93DF93CDB7DEB784E490E0FC01108281
:100B200080EB90E0FC011082DF91CF9108950F934C
:100B3000CF93DF931F92CDB7DEB78983098121E080
:100B400040E060E081E00E9429050F90DF91CF91A5
:100B50000F9108950F93CF93DF931F92CDB7DEB718
:100B60008983098120E041E060E081E00E9429055D
:100B70000F90DF91CF910F9108950F93CF93DF9353
:100B80001F92CDB7DEB78983098121E040E061E0A3
:100B900080E00E9429050F90DF91CF910F91089579
:100BA000CF93DF93CDB7DEB78BE290E02BE230E05E
:100BB000F90120812866FC01208385E290E025E28E
:100BC00030E0F90120812860FC012083DF91CF9182
:100BD0000895CF93DF93CDB7DEB784E290E024E2AF
:100BE00030E0F90120812860FC0120838AE290E056
:100BF0002AE230E0F90120812866FC01208385E4A7
:100C000090E021E0FC01208381EB90E021E0FC01F9
:100C100020838EE690E026E0FC01208380E790E0D0
:100C200026E0FC012083DF91CF910895CF93DF93DD
:100C3000CDB7DEB7A0970FB6F894DEBF0FBECDBF1D
:100C400087E290E02FE1FC01208388E290E02FE131
:100C5000FC01208380E090E0A8E4B2E489839A83D9
:100C6000AB83BC832BEA3AEA4AEA5EE369817A8184
:100C70008B819C810E94FE09DC01CB018D839E83C8
:100C8000AF83B88720E030E040E85EE369817A8195
:100C90008B819C810E94FE09DC01CB0189879A87A8
:100CA000AB87BC8720E030E040E85FE36D817E8168
:100CB0008F8198850E94DE0888231CF481E08D874F
:100CC000B2C020E03FEF4FE757E469857A858B8516
:100CD0009C850E94F90918160CF07BC020E030E0DA
:100CE0004AE754E469817A818B819C810E94E30800
:100CF000DC01CB018E879F87A88BB98B20E030E089
:100D00004AE753E46E857F85888999890E94FE09A8
:100D1000DC01CB018A8B9B8BAC8BBD8B20E030E060
:100D200040E85FE36A897B898C899D890E94DE089F
:100D300088232CF481E090E09F8B8E8B3FC020E0D5
:100D40003FEF4FE757E46A897B898C899D890E9430
:100D5000F90918164CF520E030E040E251E46E85C8
:100D60007F85888999890E94FE09DC01CB01BC013D
:100D7000CD010E945509DC01CB019F8B8E8B0FC0EA
:100D800089E190E0998F888F888D998D0197F1F78F
:100D9000998F888F8E899F8901979F8B8E8B8E89E3
:100DA0009F89892B69F73FC06A897B898C899D89D6
:100DB0000E945509DC01CB019F8B8E8B8E899F8908
:100DC0009B8F8A8F8A8D9B8D0197F1F79B8F8A8FDE
:100DD0002AC020E030E04FE753E46D817E818F81AF
:100DE00098850E94F9091816ACF469857A858B8577
:100DF0009C850E945509DC01CB019D8F8C8F8C8DC9
:100E00009D8D9F8F8E8F8E8D9F8D0197F1F79F8F78
:100E10008E8F0FC06D817E818F8198850E945509CC
:100E2000DC01CB018D878D8588A388A18A95F1F798
:100E300088A387E290E020E2FC012083A0960FB611
:100E4000F894DEBF0FBECDBFDF91CF910895CF9351
:100E5000DF93CDB7DEB781E890E0FC01108282E835
:100E600090E0FC01108280E890E020E8FC01208303
:100E70008FE690E0FC01108284E890E0FC01118292
:100E8000108288E890E020E03AE0FC013183208382
:100E900086E390E0FC0110828FE690E022E0FC0106
:100EA000208381E890E022E0FC012083DF91CF9154
:100EB0000895CF93DF93CDB7DEB78BE390E02BE3BC
:100EC00030E0F90120812D7FFC0120838CE690E049
:100ED0002FE1FC01208388E690E022E0FC012083E2
:100EE000DF91CF910895CF93DF93CDB7DEB7109206
:100EF0000001109278018FE1809345028BE390E02E
:100F00002BE330E0F90120812D7FFC0120830E943A
:100F100016060E9459070E94270787E290E027E201
:100F200030E0F90120812062FC01208388E290E01A
:100F300028E230E0F90120812062FC0120837894CE
:100F4000DF91CF910895CF93DF9300D0CDB7DEB777
:100F500081E890E0FC0110821092780180E18983A1
:100F600084E08A8319C08A81882F90E0880F991FB6
:100F700083599E4FFC01808191818115974030F407
:100F8000909178018981892B809378018981869558
:100F900089838A8181508A838981882321F780917E
:100FA000780180958F71809378010F900F90DF9179
:100FB000CF910895CF93DF93CDB7DEB70E9473072B
:100FC00080910001853039F4F89400000E94A30755
:100FD0000E94730701C0F4CF80910001853011F4A5
:100FE000F89401C0F9CF0E94A3070E94FA07DF918D
:100FF000CF910895CF93DF93CDB7DEB7809178017D
:10100000882F90E08E7099270E9751F48091780187
:101010008F3131F0809105018F5F8093050102C00F
:101020001092050180910501803538F082E08093AF
:1010300004010E9488050E94D005DF91CF91089598
:10104000CF93DF93CDB7DEB729970FB6F894DEBF05
:101050000FBECDBF9E838D8378876F8349871982AA
:101060006AC08985882F90E001972D813E81820F8B
:10107000931FFC0180818B838985882F90E00297E4
:101080002D813E81820F931FFC0180818C83898595
:10109000882F90E003972D813E81820F931FFC01E2
:1010A00080818A838C81813079F58B81882361F4FA
:1010B0008A81882319F482E08A830EC08A81823073
:1010C00059F483E08A8308C08B81823029F48A81B5
:1010D000882311F483E08A838981882F90E023E6B6
:1010E00030E0A901481B590BCA019C018F819885EA
:1010F000820F931F2A81FC01208389818F5F89835E
:1011000089858150898717C08981882F90E023E6DF
:1011100030E0A901481B590BCA019C018F819885B9
:10112000820F931F2A81FC01208389818F5F89832D
:101130008985815089878985833008F092CF21C0C5
:101140008981882F90E023E630E0A901481B590BE4
:10115000CA019C018F819885820F931F2985222FB8
:1011600030E0215031094D815E81240F351FF90196
:101170002081FC01208389818F5F8983898581504B
:10118000898789858823E1F68981882F90E024E684
:1011900030E0A901481B590BCA019C018F81988539
:1011A000820F931F98878F83898129960FB6F894B1
:1011B000DEBF0FBECDBFDF91CF9108950E9484099D
:1011C00008F481E008950E94F7080C94BF090E947A
:1011D000B80958F00E94B10940F029F45F3F29F0A6
:1011E0000C94A80951110C94F3090C94AE090E94B7
:1011F000D00968F39923B1F3552391F3951B550B4F
:10120000BB27AA2762177307840738F09F5F5F4FD9
:10121000220F331F441FAA1FA9F335D00E2E3AF018
:10122000E0E832D091505040E695001CCAF72BD030
:10123000FE2F29D0660F771F881FBB1F2617370781
:101240004807AB07B0E809F0BB0B802DBF01FF27B3
:1012500093585F4F3AF09E3F510578F00C94A809DF
:101260000C94F3095F3FE4F3983ED4F386957795A9
:101270006795B795F7959F5FC9F7880F911D96956C
:10128000879597F90895E1E0660F771F881FBB1FC8
:10129000621773078407BA0720F0621B730B840B75
:1012A000BA0BEE1F88F7E09508950E94D80988F0E0
:1012B0009F5798F0B92F9927B751B0F0E1F0660F1A
:1012C000771F881F991F1AF0BA95C9F714C0B1305B
:1012D00091F00E94F209B1E008950C94F209672F91
:1012E000782F8827B85F39F0B93FCCF3869577958A
:1012F0006795B395D9F73EF4909580957095619573
:101300007F4F8F4F9F4F0895990F0008550FAA0BDD
:10131000E0E8FEEF16161706E807F907C0F0121608
:101320001306E407F50798F0621B730B840B950B0B
:1013300039F40A2661F0232B242B252B21F4089560
:101340000A2609F4A140A6958FEF811D811D0895FD
:1013500097F99F6780E870E060E008959FEF80EC68
:10136000089500240A94161617061806090608950B
:1013700000240A9412161306140605060895092E71
:101380000394000C11F4882352F0BB0F40F4BF2BE0
:1013900011F460FF04C06F5F7F4F8F4F9F4F089520
:1013A00057FD9058440F551F59F05F3F71F0479516
:1013B000880F97FB991F61F09F3F79F087950895FB
:1013C000121613061406551FF2CF4695F1DF08C01A
:1013D000161617061806991FF1CF86957105610537
:1013E00008940895E894BB2766277727CB0197F9DF
:1013F00008950E94840908F48FEF08950E94110A4D
:101400000C94BF090E94B10938F00E94B80920F07D
:10141000952311F00C94A8090C94AE0911240C9496
:10142000F3090E94D00970F3959FC1F3950F50E026
:10143000551F629FF001729FBB27F00DB11D639F86
:10144000AA27F00DB11DAA1F649F6627B00DA11D2C
:10145000661F829F2227B00DA11D621F739FB00DD2
:10146000A11D621F839FA00D611D221F749F332742
:10147000A00D611D231F849F600D211D822F762FDB
:101480006A2F11249F5750409AF0F1F088234AF0B8
:10149000EE0FFF1FBB1F661F771F881F9150504024
:1014A000A9F79E3F510580F00C94A8090C94F3090C
:1014B0005F3FE4F3983ED4F3869577956795B795AB
:1014C000F795E7959F5FC1F7FE2B880F911D9695C5
:1014D000879597F90895DC01CB01FC01F999FECFBE
:1014E00006C0F2BDE1BDF89A319600B40D924150AC
:1014F0005040B8F70895F999FECF92BD81BDF89A92
:10150000992780B50895DC01CB0103C02D910E947D
:101510008E0A41505040D0F70895262FF999FECFFA
:101520001FBA92BD81BD20BD0FB6F894FA9AF99A00
:0A1530000FBE01960895F894FFCF56
:00000001FF
