:100000000C9434000C9451000C9451000C94510049
:100010000C9464000C9451000C9451000C94510009
:100020000C9451000C9451000C9451000C9453000A
:100030000C9451000C9451000C9451000C945100FC
:100040000C9451000C9451000C9451000C945100EC
:100050000C9451000C9451000C9451000C945100DC
:100060000C9451000C94510011241FBECFEFD8E026
:10007000DEBFCDBF11E0A0E0B1E0E2E8FAE002C0EF
:1000800005900D92A030B107D9F722E0A0E0B1E0D1
:1000900001C01D92A734B207E1F70E9434020C940C
:1000A0003F050C94D6001F920F920FB60F921124A9
:1000B0008F93109281008FEF87B918B88F910F90AE
:1000C0000FBE0F901F9018951F920F920FB60F92B0
:1000D00011248F939F93EF93FF931092810086B129
:1000E0008F718093DD0145988091DD0190914602EA
:1000F00089278093DD018091DD0197B1892B87B934
:100100008091DD0198B18095892388B98091DD01C6
:1001100090914602892780934602809184009091B5
:10012000850090936C0180936B0184E08093420280
:1001300080E18093450280914502882331F18091CE
:1001400045029091DD01892391F0E0914202F0E0B7
:1001500080916B0190916C01EE0FFF1FE359FE4FF0
:1001600091838083809106018F5F80930601809147
:10017000450286958093450280914202815080938A
:100180004202809145028111DACF809106018530CB
:1001900021F082E080938100459AFF91EF919F9139
:1001A0008F910F900FBE0F901F9018951F920F9276
:1001B0000FB60F9211240F900FBE0F901F9018953D
:1001C00083EF84BD8093B000089514BC1092B000FA
:1001D00008951092B30017BC88BD8093B4000895B1
:1001E0008093B30017BC88BD1092B400089510929C
:1001F000B30087BD18BC8093B40008958BB18866A6
:100200008BB92B9A0895239A8AB188668AB981E0BE
:1002100085BD8093B10086E080936E00809370006E
:1002200008958FE187B988B980E18A95F1F700C018
:1002300080E287B90895E1E8F0E010821092820030
:1002400080E880938000AFE6B0E01C9210928500B9
:100250001092840080E09AE0909389008093880057
:1002600016BA82E08C9380830895D9988FE18093A9
:100270006C0082E08093680008951092060110924D
:1002800078018FE180934602D9980E9411010E9463
:1002900035010E941B013D9A459A78940895109269
:1002A00081001092780184E090E1E82FF0E0EE0FF9
:1002B000FF1FE359FE4F208131812115374028F47B
:1002C00020917801292B209378019695815068F729
:1002D0008091780180958F71809378010895809145
:1002E00078018E708E3051F4809178018F3131F029
:1002F000809100018F5F8093000102C01092000185
:1003000080910001803538F082E0809301010E94E5
:10031000E5000E94FE0008950E943D0180910601C3
:100320008530E1F7F8940E944F010E946F01089513
:10033000CF92DF92EF92FF920F931F93CF93DF93B1
:10034000CDB7DEB7C456D1090FB6F894DEBF0FBEE5
:10035000CDBFDA01633071050CF453C043E650E0C1
:100360000F2EF3E0FF2EF02D6894EE24E1F89C01AF
:10037000260F371FF901319700813297108131968E
:100380002081213029F5011106C0112351F01230CE
:1003900049F41F2D07C0023029F4111103C01F2D8D
:1003A00001C01E2D2D913C911197FA01E21BF30B18
:1003B000CC24C394D12CCC0EDD1EEC0DFD1D10837E
:1003C0002F5F3F4F11963C932E936350710915C0D8
:1003D0002D913C911197FA01E21BF30BCC24C394AD
:1003E000D12CCC0EDD1EEC0DFD1D10832F5F3F4F79
:1003F00011963C932E9361507109633071050CF096
:10040000B6CF16161706F4F47C01E60EF71E03E6C7
:1004100010E02D913C911197A801421B530B61E014
:1004200070E06C0F7D1F460F571FF70162917F012F
:10043000FA0160832F5F3F4F11963C932E93E8168D
:10044000F90639F7CE010196CC59DF4F0FB6F89473
:10045000DEBF0FBECDBFDF91CF911F910F91FF90F7
:10046000EF90DF90CF9008956F927F928F929F923E
:10047000AF92BF92CF92DF92EF92FF920F931F93B2
:10048000CF93DF9300D0CDB7DEB780E090E00E943D
:100490001F05182F0E9403010E94E000153009F08B
:1004A0003FC182E090E00E941F0590E0909303011D
:1004B0008093020181E090E00E941F058093430237
:1004C000482F50E064E070E087E091E00E940F0563
:1004D00044E650E064E670E089E791E00E940F0591
:1004E000E12CF12C0F2EFAE0CF2EF02DB12CDD24D3
:1004F000D3940B2D8C2C9D2CAB2C0AC10E948C010B
:1005000080917801817109F4ECC01091780111712A
:1005100080E80E94E90080917801817131F00E94A9
:100520008C01809178018171D1F78091780182FDF1
:1005300003C0113109F0B5C0C7010196F701E95FA9
:10054000FE4F2081FC01E95FFE4F2081211145C053
:1005500080E30E94F700609078017C2C1B2D0E94A4
:100560008C01909178018D2D9611802F180F60903D
:1005700078017A947110F3CF13C0609078010E94D3
:100580008C01782C102F0E948C0190917801892D7C
:1005900096118A2D180F609078017A947110F3CF1C
:1005A0008091780182FD05C08091780181FF04C0AF
:1005B00009C0163010F3F8CF0E948C0180917801A9
:1005C00081FFFACF8091780182FD67C00E948C0183
:1005D0008091780182FFFACF60C0FC01E95FFE4F95
:1005E0002081223079F485E10E94E9008091780130
:1005F000817109F452C00E948C018091780181714F
:10060000D1F74BC0FC01E95FFE4F8081833009F0D8
:1006100044C080E30E94F000609078017C2C1B2D88
:100620000E948C01909178018D2D9611802F180FCA
:10063000609078017A947110F3CF13C060907801C4
:100640000E948C01782C102F0E948C0190917801CF
:10065000892D96118A2D180F609078017A94711067
:10066000F3CF8091780182FD05C08091780183FFEE
:1006700004C009C0163010F3F8CF0E948C0180919D
:10068000780183FFFACF8091780182FD06C00E9435
:100690008C018091780182FFFACF22E0E20EF11CFA
:1006A00037C0113071F480E80E94F7008091780122
:1006B00082FD2EC00E948C018091780182FFFACFCA
:1006C00027C0103129F580E80E94F0008091780160
:1006D00082FD1EC00E948C018091780182FFFACFBA
:1006E00017C08091780182FF04C080E30E94E90076
:1006F0000FC08091780183FF04C085E10E94F00063
:1007000007C08091780181FF03C085E10E94F70056
:100710008091430290E0E816F9060CF4EFCE68C130
:10072000882483946894772471F80F2EFAEF9F2E13
:10073000F02DA12C0F2EF8ECBF2EF02DC12C8091A6
:1007400001018230A1F565E080E090E00E94310572
:10075000409102015091030164E670E087E091E06E
:100760000E942705609102017091030182E090E0F0
:100770000E9431051A821982AE014F5F5F4FB701A7
:1007800087E091E00E9498017C01698181E090E01E
:100790000E94310549815A8164E070E0C7010E94DE
:1007A0002705809201010E94E5000E94FE008091D1
:1007B0000101811113C10E948C018091780180FF99
:1007C00088C0809178018471D82E80E80E94E90069
:1007D0008091780180FF06C00E948C019091780181
:1007E00090FDFACF80E80E94F7008091780182FFA7
:1007F000FAC00B2D1C2D0E948C019091780192FF64
:10080000F2C001501109B9F7EEC0092D1A2D0E944E
:100810008C019091780191FF05C08091780184301E
:1008200029F40AC00150110991F7F7CF0E948C01F9
:10083000809178018430D1F7DD2089F0E0910201C8
:10084000F0910301E95FFE4F1082809102019091C7
:10085000030101969093030180930201ABC0809144
:10086000780184FFA7C080E80E94E90080917801A8
:1008700084FF08C00E948C010E946F018091780162
:1008800084FDF8CF809178018E7099F085E10E9407
:10089000E90080910201909103019C012F5F3F4F7D
:1008A0003093030120930201FC01E95FFE4F708247
:1008B0000DC080E80E94F0008091780182FD06C0A2
:1008C0000E948C018091780182FFFACF0E948C01F6
:1008D00071C08091780182FF04C080E30E94E9002A
:1008E00069C080917801823021F480E30E94F70092
:1008F00061C080917801883021F480E30E94F0008B
:1009000059C080917801811155C080917701843060
:1009100041F5E0910201F0910301EA5FFE4F808111
:100920008130D9F080910201909103019C012F5FE9
:100930003F4F3093030120930201FC01E95FFE4F1A
:10094000808280E80E94E9008FE996E821E08150EA
:1009500090402040E1F700C0000080E30E94F000DA
:1009600023C0809177018C7171F080E80E94F000C3
:100970008091780182FD18C00E948C0180917801DD
:1009800082FFFACF11C080917701837069F080E80F
:100990000E94F7008091780182FD06C00E948C01C0
:1009A0008091780182FFFACF81E090E09093050179
:1009B0008093040180917801882321F01092050131
:1009C000109204018091040190910501892B09F096
:1009D000B6CE8091780180937701B1CE0E94E50078
:1009E0000E94FE00ACCE8091780181FF0ECF15CF22
:1009F0000E94E5000E94FE0080E090E00F900F90C2
:100A0000DF91CF911F910F91FF90EF90DF90CF90EA
:100A1000BF90AF909F908F907F906F900895DC0172
:100A2000CB01FC01F999FECF06C0F2BDE1BDF89AF9
:100A3000319600B40D9241505040B8F70895F9999D
:100A4000FECF92BD81BDF89A992780B50895DC014B
:100A5000CB0103C02D910E94320541505040D0F788
:100A60000895262FF999FECF1FBA92BD81BD20BDF2
:100A70000FB6F894FA9AF99A0FBE01960895F89471
:020A8000FFCFA6
:00000001FF
